:0B00340012075812067012004680F8F8
:10075800758921758CD8758AF0758DFD758BFDD2DC
:100768008CD28ED29CC29FD29ED2AC759A50E4F5A0
:10077800A2F587F5B5759CFD758E10D2AF75AF01E2
:05078800D2B4D2B5223D
:0B078D009000FFEBF0A3EAF0A3E9F0FE
:10079800C2ACE4FFEFC39D501D9000FFE0FBA3E057
:1007A800FAA3E0F98F827583001207EEF599309964
:0807B800FDC2990F80DED2ACF6
:0107C0002216
:03000B0002081BCD
:10081B00C0E0C083C082758CD8758AF090006DE003
:0F082B0004F0900014E004F0D082D083D0E032CB
:03002300020601D1
:10060100C0E0C083C082C0D075D000C00790006D2B
:10061100E4F0D2A9D28C900000E0FF04F074B82F6E
:10062100F582E43400F583E599F0900104E599F051
:10063100900000E0B402119000B8E0B4FF05A3E01F
:10064100F46005900000E4F0900103E0B4FF0BA317
:10065100E0B45506900000E014F0900104E0900130
:0F06610003F0C298D007D0D0D082D083D0E0323F
:10071800E4FFFE9000BBE0F92401FDE433FCEEC3E6
:100728009DEC6480F8748098501074BA2EF582E4B9
:100738003400F583E02FFF0E80D9E9240324B8F5AF
:0F07480082E43400F583E0B507037F01227F00D0
:01075700227F
:030043000206D1E1
:1006D100C0E0C083C082C0D075D000C00790001EAA
:1006E100E0FF04F074152FF582E43400F583E59BF7
:1006F100F090001EE0B402119000B8E0B4FF05A331
:10070100E0F4600590001EE4F0539AFED007D0D0CB
:07071100D082D083D0E0325A
:08044300410105054101060518
:1000460090006DE0C3940A401F90001AE0F508A3E3
:10005600E0F509C2A9E490001EF090006DF01207C9
:100066001890001DEFF0C29C90001DE07003020482
:10007600429000BDE0900021F0E4900020F0900056
:10008600BCE024FD70030202FF24FC607524FD70B1
:100096000302015424FE7003020159147003020185
:1000A6005E24FE700302025B24FE70030202A72494
:1000B600106003020437900021E0900027F0E490DE
:1000C6000020F09000FE7402F09000FEE0FFC39462
:1000D6004A501A74222FF582E43400F583E0FF902B
:1000E6000020E02FF09000FEE004F080DC9000207D
:1000F600E0FFF090006CF07B017A0079227D4B02E4
:100106000434900021E0900073F0E4900020F09019
:1001160000FE7402F09000FEE0FFC39408501A74CB
:100126006E2FF582E43400F583E0FF900020E02F87
:10013600F09000FEE004F080DC900020E0FFF090FC
:100146000076F07B017A00796E7D09020434C29450
:10015600020437D294020437D294B2959000C1E0DB
:10016600FF30E409C296E4900105F08018EF20E420
:1001760014900105E0600ED2967F90120026C2967A
:100186007F901200269000C1E0FF30E509C297E497
:10019600900106F08018EF20E514900106E0600E4D
:1001A600D2977F90120026C2977F90120026900069
:1001B60021E0900087F09000FE7402F09000FEE0CF
:1001C600FFC39408501A74822FF582E43400F58335
:1001D600E0FF900020E02FF09000FEE004F080DCCD
:1001E600900020E0FFF090008AF07B017A0079828F
:1001F6007D0912078DE4900020F0900021E0900028
:10020600B0F0E590F4900078F0E09000B4F0A3E54B
:1002160008F0A3E509F09000FE7402F09000FEE0FD
:10022600FFC3940C501A74AB2FF582E43400F583A7
:10023600E0FF900020E02FF09000FEE004F080DC6C
:10024600900020E0FFF09000B7F07B017A0079ABD8
:100256007D0D020434900021E0900090F0E49000BF
:1002660020F09000FE7402F09000FEE0FFC39408B8
:10027600501A748B2FF582E43400F583E0FF90006A
:1002860020E02FF09000FEE004F080DC900020E0FB
:10029600FFF0900093F07B017A00798B7D090204D0
:1002A60034900021E0900099F0E4900020F0900056
:1002B600C0E090001FF090009CF09000FE7402F0E9
:1002C6009000FEE0FFC39409501A74942FF582E45F
:1002D6003400F583E0FF900020E02FF09000FEE070
:1002E60004F080DC900020E0FFF090009DF07B01A0
:1002F6007A0079947D0A0204349000C0E0B40204C6
:100306007F0180027F009000BBEFF06060900021CB
:10031600E09000A3F0E4900020F0E590F4900077E0
:10032600F0E09000A7F0A3E508F0A3E509F090003F
:10033600FE7402F09000FEE0FFC3940C501A749E07
:100346002FF582E43400F583E0FF900020E02FF0E3
:100356009000FEE004F080DC900020E0FFF09000CA
:10036600AAF07B017A00799E7D0D0204349000C0CC
:10037600E0B401047F0180027F009000BBEFF070C3
:10038600030204371207C1900021E0900006F090A6
:1003960000FE7402F09000FEE0FFC39408501A7449
:1003A600012FF582E43400F583E0FF900020E02F72
:1003B600F09000FEE004F080DC900020E0FFF0907A
:1003C6000009F07B017A0079017D0912078D900002
:1003D60021E09000B0F0E590F4900078F0E4900011
:1003E60020F0900078E09000B4F0A3E508F0A3E5D3
:1003F60009F09000FE7402F09000FEE0FFC3940C3A
:10040600501A74AB2FF582E43400F583E0FF9000B8
:1004160020E02FF09000FEE004F080DC900020E069
:10042600FFF09000B7F07B017A0079AB7D0D1207E3
:0C0436008DE4900000F090001DF0D29CBE
:010442002297
:1007C1009000C1E024FE60140470219000C2E0FF9B
:1007D100B40103C29022EF7013D290229000C2E0C4
:0D07E100FFB40203C29122EF7002D29122F8
:0A083A00C2A37F2C120026D2A322D5
:1006700020B41D7F1412000E20B41512083AC29C3B
:100680007B017A0079EA7D0A12078D30B4FDD29C95
:1006900020B51D7F1412000E20B51512083AC29C19
:1006A0007B017A0079F47D0A12078D30B5FDD29C6A
:1006B00020B61D7F1412000E20B61512083AC29CF7
:1006C0007B017A0079797D0912078D30B6FDD29CC5
:0106D0002207
:0D000E00EFD3940040077E6EDEFE1F80F3EE
:01001B0022C2
:0D002600EFD3940040077E6EDEFE1F80F3D6
:0100330022AA
:10044B00603200B800000000000000000000000057
:10045B000000000000000000000000000000000091
:10046B000000000000000000000000000000000081
:10047B000000000000004800150000000000000014
:10048B000001080001090041001400604B0022FF2D
:10049B00FF00470255000030303030303030343000
:1004AB00303030303030343030303030303031303C
:1004BB00303030303030313538633365316133377C
:1004CB006163653462326538393263613962303366
:1004DB003762333936323700005549006EFFFF0063
:1004EB000508550000554A00EAFFFF000609000009
:1004FB000001104A00F4FFFF000609000000021182
:10050B00490079FFFF00050B00000010490082FF36
:10051B00FF00050E5500005549008BFFFF0005102D
:10052B00550000554A0094FFFF00061255000011BC
:10053B00554D009EFFFF000904550000030000000D
:10054B00554D00ABFFFF00090555000004000000EE
:10055B0055490001FFFF0005045500005549000AED
:09056B00FFFF00051555000055C5
:0300000002057581
:0C057500787FE4F6D8FD7581090205BC12
:1007EE00BB010CE58229F582E5833AF583E02250C0
:1007FE0006E92582F8E622BBFE06E92582F8E2220A
:0D080E00E58229F582E5833AF583E4932223
:10058100020034E493A3F8E493A34003F68001F25C
:1005910008DFF48029E493A3F85407240CC8C3337B
:1005A100C4540F4420C8834004F456800146F6DF4A
:1005B100E4800B0102040810204080900443E47E93
:1005C100019360BCA3FF543F30E509541FFEE4933F
:1005D100A360010ECF54C025E060A840B8E493A306
:1005E100FAE493A3F8E493A3C8C582C8CAC583CA31
:1005F100F0A3C8C582C8CAC583CADFE9DEE780BEE9
:010574000086
:00000001FF
