:10058900015200C100023700000D2454656D7065E9
:100599007261747572653A000A3A48756D696469E1
:1005A90074793A0001210005540000000000075D3C
:1005B90000000000000000013100084AFFFFAA0105
:0405C900020000002C
:1006C800758920758C4CE4F58A758DFD758BFDD286
:0E06D8008ED2A9C29CC29FD29ED2AFD2AC22BB
:060611008B088A09890A2A
:10061700C2ACE4FFEFC39D5018AB08AA09A90A8F23
:10062700827583001202C0F5993099FDC2990F8037
:03063700E3D2AC5F
:01063A00229D
:10070100D3EF9400EE9400400DE4FD0DBD1BFCEF12
:060711001F70ED1E80EADE
:0107170022BF
:0C076C00150815081508150815081508D3
:01077800225E
:06075B00D2A27F057E0022
:0B076100EF1FAC0670011E4C70F6226A
:0A063B002430FF12072F7F037E001A
:10064500D3EF9400EE940040147D6F7C00ED1D7097
:0D065500011CED4C70F7EF1F70E61E80E3F6
:010662002275
:1006A90012075BC2A27F3C7E0012076112075B2022
:0F06B900A204D2008002C2007F147E00020761FB
:10074600C2A20000D2A200A2A292017F0A7E0012DB
:040756000761A20194
:01075A00227C
:1006E600E4FB120746E433FFC43333335480FEED94
:0A06F600C3134EFD0BBB08EAAF056D
:0107000022D6
:02066300AD07E1
:10066500E4FBC2A200ED1392A27F067E0012076191
:10067500D2A2EDC313FD0BBB08E87F067E0002077F
:010685006113
:100537001206A97FCC1206637FBE1206631206E677
:10054700AA071206E67537008F38E538753800F5C3
:1005570037AF02EF4238E4AC37AD38120206E4FB9E
:10056700FA7920783F1200FBE4FBFAF9783F120092
:100577000A12023F8E378F387C007D0A1202ED8FF8
:010587004F24
:010588002250
:1005CE00E4FF75340220A007AE340534EE70F61247
:1005DE00076C12076C12076CE4F54630A0037546E3
:1005EE000175340230A007AE340534EE70F6E534F2
:1005FE006401600EE55C25E0F55CE546425C0FBFEC
:02060E0008C022
:0106100022C7
:10046600C2A07FB47E00120701D2A012076C120749
:100476006C12076C12076CD2A020A05375340220B0
:10048600A007AF340534EF70F675340230A007AF1D
:10049600340534EF70F61205CE855C5A1205CE850A
:1004A6005C5B1205CE855C321205CE855C33120587
:1004B600CE855C45D2A0E5322533255A255BF54627
:1004C600B5450C855A50855B4885332385453622CC
:10068600E4F5537F02744A2FF8E62553F5530FBF5E
:1006960007F38553538553517B007A00794A7D08C9
:0306A60002061138
:10071800C2B58F807F057E00120645D2B47F057E64
:0707280000120645C2B422D5
:10072F00D2B58F807F057E00120645D2B47F057E3D
:07073F0000120645C2B422BE
:1004D600C2A6C2A7C2B4C2B67F381207187F0C12D2
:1004E60007187F061207187F011207187F80120768
:1004F60018E4F54974242549F8E6FF12072F7F050D
:100506007E001206450549E549C3940C40E67FC0C6
:10051600120718E4F549743A2549F8E6FF12072F41
:100526007F057E001206450549E549C3940940E664
:0105360022A2
:1003DC001204D61206C87F017E001207011206A96C
:1003EC007FCC1206637F4412066312053712046633
:1003FC007F8C120718120641AE37AF387C007D0A8D
:10040C001202ED7C007D0A1202EDEF12063BAE37B4
:10041C00AF387C007D0A1202ED7C007D0A1202EDE1
:10042C00ED12063B7FDF12063E7F4312072F7FC97A
:10043C00120718120641E55075F00A8412063BE5C6
:10044C005075F00A84E5F02430FF12072F1206864F
:0A045C007FD07E071206450203E977
:100003000202ABE86480F8E933E83360110460F07E
:10001300ED33EC337009E8FCE9FDEAFEEBFF220463
:1000230060DED3EB9FEA9EE99DE8C2E78CF0C2F75E
:1000330095F0400CE8CCF8E9CDF9EACEFAEBCFFB2A
:1000430012027685D0F05804700320D5B3E804700B
:10005300075002B2D50202B592D5EC0460F7E4CCA6
:10006300C0E0C398F8603B94186008400DD0E0FBF3
:1000730002028DE4FBFAC9FC8028E830E406E4C9F7
:10008300FBE4CAFCE830E305E4C9CACBFCE8540747
:100093006010F8C3E913F9EA13FAEB13FBEC13FC52
:1000A300D8F130F52FC3E49CFCEF9BFFEE9AFEEDF5
:1000B30099FDD0E0FBEF4E4D4C701222DB030202A0
:1000C300B2EC2CFCEF33FFEE33FEED33FDED30E706
:1000D300EB02028DEF2BFFEE3AFEED39FDD0E0FB94
:1000E30050130BBB00030202B5ED13FDEE13FEEF3D
:0800F30013FFEC13FC02028D67
:1000FB00EC4D6011E8497017ED33EC3304600DE4FF
:10010B00FCFFFEFD22E933E8330470F80202AB1268
:10011B00027658046009E4CC248150062850090269
:10012B0002B52840030202B2C0E0EB4A7044B9802A
:10013B0006D0E0FB0202A1EF4E701CBD8008EBFF66
:10014B00EAFEE9FD80EBE98DF0A4FEE5F00201E4A7
:10015B00E9CDF9EAFEEBFFEF89F0A4FCE5F0CE89DF
:10016B00F0A42EFFE435F0CD89F0A42DFEE435F09C
:10017B008067EF4E7005BD80D780C3EF8BF0A4ACCA
:10018B00F0EE8BF0A42CFCE435F0F8EF8AF0A42C05
:10019B00E5F038FCE433CB8DF0A42CFCE5F03BF818
:1001AB00EE8AF0A42CFCE5F038F8E433CF89F0A408
:1001BB002CFCE5F038CF3400CE89F0A42FFFE5F00E
:1001CB003EFEE433C98DF0A42EFEE5F039CD8AF066
:1001DB00A42FFFE5F03EFEE43DFD33D0E0FB5007DE
:1001EB000BBB000F0202B5EC2CFCEF33FFEE33FE22
:0601FB00ED33FD02028D50
:1002010075F020800E75F010800575F0087D007E78
:10021100007F003392D530D503120342EC334010F6
:10022100EF33FFEE33FEED33FDEC33FCD5F0ED2281
:0E023100E5F0247EA2D513CC92E7CDCEFF22BD
:10023F00EDD2E7CD33EC3392D524814006E4FFFEB7
:10024F00FDFC22FCE4CFCECDCC24E0501174FF8016
:10025F00EDC3CC13CCCD13CDCE13CECF13CF0470B3
:07026F00F030D5DE0203426E
:10027600E9D2E7C933E833F892D5EDD2E7CD33ECCE
:0702860033FC5002B2D52247
:10028D00EC30E7100FBF000C0EBE00080DBD0004D2
:10029D000BEB6014A2D5EB13FCED92E7FD2274FF7E
:1002AD00FCFDFEFF22E480F8A2D574FF13FC7D80D7
:0302BD00E480EFEB
:03000000020350A8
:0C035000787FE4F6D8FD75816802039701
:1002C000BB010CE58229F582E5833AF583E02250F3
:1002D00006E92582F8E622BBFE06E92582F8E2223D
:0D02E000E58229F582E5833AF583E4932257
:1002ED00BC000BBE0029EF8DF084FFADF022E4CCF5
:1002FD00F875F008EF2FFFEE33FEEC33FCEE9DECBE
:10030D00984005FCEE9DFE0FD5F0E9E4CEFD22ED03
:10031D00F8F5F0EE8420D21CFEADF075F008EF2F4D
:10032D00FFED33FD4007985006D5F0F222C398FD3E
:05033D000FD5F0EA22DB
:0E034200C3E49FFFE49EFEE49DFDE49CFC22CC
:10035C000203DCE493A3F8E493A34003F68001F2D8
:10036C0008DFF48029E493A3F85407240CC8C333A2
:10037C00C4540F4420C8834004F456800146F6DF71
:10038C00E4800B0102040810204080900589E47E73
:10039C00019360BCA3FF543F30E509541FFEE49366
:1003AC00A360010ECF54C025E060A840B8E493A32D
:1003BC00FAE493A3F8E493A3C8C582C8CAC583CA58
:1003CC00F0A3C8C582C8CAC583CADFE9DEE780BE10
:0105CD00002D
:00000001FF
